Here you will find out how does it works when traffic is routed. Dev session is started at 15:57:35 till 15:58:08
Find out in tcp traffic how python script and routed tcp traffic si working fine :)

MINING LOG FROM TERMINAL:

15:56:59] INFO  - Received new job #8baa
[15:57:07] INFO  - 168/1 Accepted : diff=0.318767 : 79.43MH/s
[15:57:13] INFO  - 169/1 Accepted : diff=1.05015 : 79.43MH/s
[15:57:19] INFO  - 170/1 Accepted : diff=1.2782 : 79.43MH/s
[15:57:20] INFO  - 171/1 Accepted : diff=0.608372 : 79.43MH/s
[15:57:35] INFO  - Start devfee session
[15:58:02] INFO  - Received new job #8bab
[15:58:08] INFO  - Start user session
[15:59:05] INFO  - Received new job #8bac
[15:59:08] INFO  - 172/1 Accepted : diff=1.18211 : 79.43MH/s
[15:59:09] INFO  - 173/1 Accepted : diff=0.349989 : 79.43MH/s

LOG OF DUMPED TCP TRAFFIC AT THE SAME TIME ON MY RIG MINING POOL ADDRESS:

15:57:20.631087 IP (tos 0x0, ttl 64, id 13182, offset 0, flags [DF], proto TCP (6), length 52)
    192.168.0.201.51936 > pool.lyra2z.com.4562: Flags [.], cksum 0x1a22 (incorrect -> 0x785e), seq 18124, ack 22980, win 539, options [nop,nop,TS val 4012944414 ecr 1224822083], length 0
        0x0000:  4500 0034 337e 4000 4006 ed4a c0a8 00c9  E..43~@.@..J....
        0x0010:  8890 cff9 cae0 11d2 d92e dcd9 eac1 3337  ..............37
        0x0020:  8010 021b 1a22 0000 0101 080a ef30 ac1e  .....".......0..
        0x0030:  4901 4d43                                I.MC
15:58:02.635327 IP (tos 0x0, ttl 51, id 37358, offset 0, flags [DF], proto TCP (6), length 624)
    pool.lyra2z.com.4562 > 192.168.0.201.51936: Flags [P.], cksum 0xca4d (correct), seq 22980:23552, ack 18124, win 1452, options [nop,nop,TS val 1224832581 ecr 4012944414], length 572
            0x0000:  4500 0270 91ee 4000 3306 999e 8890 cff9  E..p..@.3.......
        0x0010:  c0a8 00c9 11d2 cae0 eac1 3337 d92e dcd9  ..........37....
        0x0020:  8018 05ac ca4d 0000 0101 080a 4901 7645  .....M......I.vE
        0x0030:  ef30 ac1e 7b22 6964 223a 6e75 6c6c 2c22  .0..{"id":null,"
        0x0040:  6d65 7468 6f64 223a 226d 696e 696e 672e  method":"mining.
        0x0050:  6e6f 7469 6679 222c 2270 6172 616d 7322  notify","params"
        0x0060:  3a5b 2238 6261 6222 2c22 3333 6235 3062  :["8bab","33b50b
        0x0070:  3137 3230 3730 3766 3638 3739 3065 3838  1720707f68790e88
        0x0080:  6436 3532 6461 6531 6263 3932 6463 6639  d652dae1bc92dcf9
        0x0090:  6665 3833 6539 3032 6337 3030 3063 3730  fe83e902c7000c70
        0x00a0:  3863 3030 3030 3030 3030 222c 2230 3230  8c00000000","020
        0x00b0:  3030 3030 3030 3130 3030 3030 3030 3030  0000001000000000
        0x00c0:  3030 3030 3030 3030 3030 3030 3030 3030  0000000000000000
        0x00d0:  3030 3030 3030 3030 3030 3030 3030 3030  0000000000000000
        0x00e0:  3030 3030 3030 3030 3030 3030 3030 3030  0000000000000000
        0x00f0:  3030 3030 3030 3066 6666 6666 6666 6631  0000000ffffffff1
        0x0100:  3830 3330 6364 6330 3330 3437 3934 3532  8030cdc030479452
        0x0110:  3235 6330 3822 2c22 3739 3639 3639 3664  25c08","7969696d
        0x0120:  3730 3030 3030 3030 3030 3030 3032 3330  7000000000000230
        0x0130:  3162 6365 3164 3030 3030 3030 3030 3139  1bce1d0000000019
        0x0140:  3736 6139 3134 3335 3234 3631 3465 6337  76a9143524614ec7
        0x0150:  6130 3731 3136 3235 3761 3065 3133 3431  a07116257a0e1341
        0x0160:  3435 3031 3139 3831 6235 6563 6439 3838  45011981b5ecd988
        0x0170:  6163 3330 3162 6365 3164 3030 3030 3030  ac301bce1d000000
        0x0180:  3030 3139 3736 6139 3134 3433 3030 3961  001976a91443009a
        0x0190:  6662 6161 6338 6461 3434 3330 6165 3765  fbaac8da4430ae7e
        0x01a0:  3262 3664 3463 3166 3262 6537 6263 3838  2b6d4c1f2be7bc88
        0x01b0:  3934 3838 6163 3030 3030 3030 3030 222c  9488ac00000000",
        0x01c0:  5b22 3262 3935 6662 3537 3831 6532 6166  ["2b95fb5781e2af
        0x01d0:  6331 6265 3061 3533 3535 6662 6166 3935  c1be0a5355fbaf95
        0x01e0:  3165 3163 3138 6430 3939 6439 3131 3236  1e1c18d099d91126
        0x01f0:  6334 3939 3865 6666 3132 3965 6633 3636  c4998eff129ef366
        0x0200:  3836 222c 2231 3239 3331 3663 3831 3366  86","129316c813f
        0x0090:  6665 3833 6539 3032 6337 3030 3063 3730  fe83e902c7000c70
        0x00a0:  3863 3030 3030 3030 3030 222c 2230 3230  8c00000000","020
        0x00b0:  3030 3030 3030 3130 3030 3030 3030 3030  0000001000000000
        0x00c0:  3030 3030 3030 3030 3030 3030 3030 3030  0000000000000000
        0x00d0:  3030 3030 3030 3030 3030 3030 3030 3030  0000000000000000
        0x00e0:  3030 3030 3030 3030 3030 3030 3030 3030  0000000000000000
        0x00f0:  3030 3030 3030 3066 6666 6666 6666 6631  0000000ffffffff1
        0x0100:  3830 3330 6364 6330 3330 3437 3934 3532  8030cdc030479452
        0x0110:  3235 6330 3822 2c22 3739 3639 3639 3664  25c08","7969696d
        0x0120:  3730 3030 3030 3030 3030 3030 3032 3330  7000000000000230
        0x0130:  3162 6365 3164 3030 3030 3030 3030 3139  1bce1d0000000019
        0x0140:  3736 6139 3134 3335 3234 3631 3465 6337  76a9143524614ec7
        0x0150:  6130 3731 3136 3235 3761 3065 3133 3431  a07116257a0e1341
        0x0160:  3435 3031 3139 3831 6235 6563 6439 3838  45011981b5ecd988
        0x0170:  6163 3330 3162 6365 3164 3030 3030 3030  ac301bce1d000000
        0x0180:  3030 3139 3736 6139 3134 3433 3030 3961  001976a91443009a
        0x0190:  6662 6161 6338 6461 3434 3330 6165 3765  fbaac8da4430ae7e
        0x01a0:  3262 3664 3463 3166 3262 6537 6263 3838  2b6d4c1f2be7bc88
        0x01b0:  3934 3838 6163 3030 3030 3030 3030 222c  9488ac00000000",
        0x01c0:  5b22 3262 3935 6662 3537 3831 6532 6166  ["2b95fb5781e2af
        0x01d0:  6331 6265 3061 3533 3535 6662 6166 3935  c1be0a5355fbaf95
        0x01e0:  3165 3163 3138 6430 3939 6439 3131 3236  1e1c18d099d91126
        0x01f0:  6334 3939 3865 6666 3132 3965 6633 3636  c4998eff129ef366
        0x0200:  3836 222c 2231 3239 3331 3663 3831 3366  86","129316c813f
        0x0210:  3831 3561 6336 3139 6139 3432 3834 3230  815ac619a9428420
        0x0220:  3835 6463 6139 3230 3563 3636 6561 6561  85dca9205c66eaea
        0x0230:  6363 3465 3663 3435 6337 3239 3563 3764  cc4e6c45c7295c7d
        0x0240:  6437 3361 6422 5d2c 2232 3030 3030 3030  d73ad"],"2000000
        0x0250:  3022 2c22 3162 3266 6339 6165 222c 2235  0","1b2fc9ae","5
        0x0260:  6332 3234 3537 3922 2c74 7275 655d 7d0a  c224579",true]}.
15:58:02.635485 IP (tos 0x0, ttl 64, id 13183, offset 0, flags [DF], proto TCP (6), length 52)
    192.168.0.201.51936 > pool.lyra2z.com.4562: Flags [.], cksum 0x1a22 (incorrect -> 0xa903), seq 18124, ack 23552, win 548, options [nop,nop,TS val 4012986417 ecr 1224832581], length 0
        0x0000:  4500 0034 337f 4000 4006 ed49 c0a8 00c9  E..43.@.@..I....
        0x0010:  8890 cff9 cae0 11d2 d92e dcd9 eac1 3573  ..............5s
        0x0020:  8010 0224 1a22 0000 0101 080a ef31 5031  ...$.".......1P1
        0x0030:  4901 7645                                I.vE
        etc....

